{
  "contractName": "RealEstateContract",
  "abi": [
    {
      "inputs": [],
      "stateMutability": "nonpayable",
      "type": "constructor"
    },
    {
      "anonymous": false,
      "inputs": [
        {
          "indexed": false,
          "internalType": "address",
          "name": "_owner",
          "type": "address"
        },
        {
          "indexed": false,
          "internalType": "uint256",
          "name": "_id",
          "type": "uint256"
        }
      ],
      "name": "Register",
      "type": "event"
    },
    {
      "anonymous": false,
      "inputs": [
        {
          "indexed": true,
          "internalType": "address",
          "name": "_from",
          "type": "address"
        },
        {
          "indexed": true,
          "internalType": "address",
          "name": "_to",
          "type": "address"
        },
        {
          "indexed": false,
          "internalType": "uint256",
          "name": "_id",
          "type": "uint256"
        }
      ],
      "name": "Transfer",
      "type": "event"
    },
    {
      "inputs": [
        {
          "internalType": "address",
          "name": "",
          "type": "address"
        }
      ],
      "name": "estates",
      "outputs": [
        {
          "internalType": "uint256",
          "name": "id",
          "type": "uint256"
        },
        {
          "internalType": "address",
          "name": "ownerAddress",
          "type": "address"
        },
        {
          "internalType": "string",
          "name": "landOwnerName",
          "type": "string"
        },
        {
          "internalType": "string",
          "name": "location",
          "type": "string"
        },
        {
          "internalType": "uint256",
          "name": "cost",
          "type": "uint256"
        },
        {
          "internalType": "uint256",
          "name": "area",
          "type": "uint256"
        },
        {
          "internalType": "uint256",
          "name": "lengthLand",
          "type": "uint256"
        },
        {
          "internalType": "uint256",
          "name": "widthLand",
          "type": "uint256"
        }
      ],
      "stateMutability": "view",
      "type": "function",
      "constant": true
    },
    {
      "inputs": [],
      "name": "owner",
      "outputs": [
        {
          "internalType": "address",
          "name": "",
          "type": "address"
        }
      ],
      "stateMutability": "view",
      "type": "function",
      "constant": true
    },
    {
      "inputs": [],
      "name": "totalEstateCounter",
      "outputs": [
        {
          "internalType": "uint256",
          "name": "",
          "type": "uint256"
        }
      ],
      "stateMutability": "view",
      "type": "function",
      "constant": true
    },
    {
      "inputs": [
        {
          "internalType": "address",
          "name": "_landOwner",
          "type": "address"
        },
        {
          "internalType": "string",
          "name": "_landOwerName",
          "type": "string"
        },
        {
          "internalType": "string",
          "name": "_location",
          "type": "string"
        },
        {
          "internalType": "uint256",
          "name": "_cost",
          "type": "uint256"
        },
        {
          "internalType": "uint256",
          "name": "_lengthLand",
          "type": "uint256"
        },
        {
          "internalType": "uint256",
          "name": "_widthLand",
          "type": "uint256"
        }
      ],
      "name": "registerEstate",
      "outputs": [],
      "stateMutability": "nonpayable",
      "type": "function"
    },
    {
      "inputs": [
        {
          "internalType": "address",
          "name": "_buyer",
          "type": "address"
        },
        {
          "internalType": "address",
          "name": "_seller",
          "type": "address"
        },
        {
          "internalType": "uint256",
          "name": "_ID",
          "type": "uint256"
        },
        {
          "internalType": "string",
          "name": "sellerName",
          "type": "string"
        }
      ],
      "name": "transferEstate",
      "outputs": [
        {
          "internalType": "bool",
          "name": "",
          "type": "bool"
        }
      ],
      "stateMutability": "nonpayable",
      "type": "function"
    },
    {
      "inputs": [
        {
          "internalType": "address",
          "name": "_estateOwner",
          "type": "address"
        }
      ],
      "name": "getEstate",
      "outputs": [
        {
          "internalType": "uint256",
          "name": "",
          "type": "uint256"
        },
        {
          "internalType": "string",
          "name": "",
          "type": "string"
        },
        {
          "internalType": "string",
          "name": "",
          "type": "string"
        },
        {
          "internalType": "uint256",
          "name": "",
          "type": "uint256"
        },
        {
          "internalType": "uint256",
          "name": "",
          "type": "uint256"
        },
        {
          "internalType": "uint256",
          "name": "",
          "type": "uint256"
        },
        {
          "internalType": "uint256",
          "name": "",
          "type": "uint256"
        }
      ],
      "stateMutability": "view",
      "type": "function",
      "constant": true
    },
    {
      "inputs": [],
      "name": "getNumberOfEstates",
      "outputs": [
        {
          "internalType": "uint256",
          "name": "",
          "type": "uint256"
        }
      ],
      "stateMutability": "view",
      "type": "function",
      "constant": true
    },
    {
      "inputs": [
        {
          "internalType": "address",
          "name": "_landOwner",
          "type": "address"
        }
      ],
      "name": "findEstateId",
      "outputs": [
        {
          "internalType": "uint256",
          "name": "",
          "type": "uint256"
        }
      ],
      "stateMutability": "view",
      "type": "function",
      "constant": true
    }
  ],
  "bytecode": "0x608060405234801561001057600080fd5b50336000806101000a81548173ffffffffffffffffffffffffffffffffffffffff021916908373ffffffffffffffffffffffffffffffffffffffff16021790555060006001819055506116cf806100686000396000f3fe608060405234801561001057600080fd5b50600436106100885760003560e01c80637d84c8bd1161005b5780637d84c8bd1461012f5780638da5cb5b1461014b578063f4ef4f9b14610169578063f65d23f51461019957610088565b806324a756011461008d578063257e2f84146100c3578063474f5b62146100e15780634c9f35db14610111575b600080fd5b6100a760048036038101906100a29190610f5a565b6101d0565b6040516100ba979695949392919061127e565b60405180910390f35b6100cb610413565b6040516100d891906111d7565b60405180910390f35b6100fb60048036038101906100f69190610f87565b610419565b604051610108919061119c565b60405180910390f35b6101196108fb565b60405161012691906111d7565b60405180910390f35b6101496004803603810190610144919061100a565b610905565b005b610153610b61565b6040516101609190611158565b60405180910390f35b610183600480360381019061017e9190610f5a565b610b85565b60405161019091906111d7565b60405180910390f35b6101b360048036038101906101ae9190610f5a565b610bd1565b6040516101c79897969594939291906111f2565b60405180910390f35b60006060806000806000806000600260008a73ffffffffffffffffffffffffffffffffffffffff1673ffffffffffffffffffffffffffffffffffffffff16815260200190815260200160002060405180610100016040529081600082015481526020016001820160009054906101000a900473ffffffffffffffffffffffffffffffffffffffff1673ffffffffffffffffffffffffffffffffffffffff1673ffffffffffffffffffffffffffffffffffffffff168152602001600282018054610298906114d8565b80601f01602080910402602001604051908101604052809291908181526020018280546102c4906114d8565b80156103115780601f106102e657610100808354040283529160200191610311565b820191906000526020600020905b8154815290600101906020018083116102f457829003601f168201915b5050505050815260200160038201805461032a906114d8565b80601f0160208091040260200160405190810160405280929190818152602001828054610356906114d8565b80156103a35780601f10610378576101008083540402835291602001916103a3565b820191906000526020600020905b81548152906001019060200180831161038657829003601f168201915b50505050508152602001600482015481526020016005820154815260200160068201548152602001600782015481525050905080600001518160400151826060015183608001518460c001518560e001518660a00151975097509750975097509750975050919395979092949650565b60015481565b60008060009054906101000a900473ffffffffffffffffffffffffffffffffffffffff1673ffffffffffffffffffffffffffffffffffffffff163373ffffffffffffffffffffffffffffffffffffffff161461047457600080fd5b82600260008673ffffffffffffffffffffffffffffffffffffffff1673ffffffffffffffffffffffffffffffffffffffff16815260200190815260200160002060000154146104c257600080fd5b6040518061010001604052808481526020018673ffffffffffffffffffffffffffffffffffffffff168152602001838152602001600260008773ffffffffffffffffffffffffffffffffffffffff1673ffffffffffffffffffffffffffffffffffffffff1681526020019081526020016000206003018054610543906114d8565b80601f016020809104026020016040519081016040528092919081815260200182805461056f906114d8565b80156105bc5780601f10610591576101008083540402835291602001916105bc565b820191906000526020600020905b81548152906001019060200180831161059f57829003601f168201915b50505050508152602001600260008773ffffffffffffffffffffffffffffffffffffffff1673ffffffffffffffffffffffffffffffffffffffff168152602001908152602001600020600401548152602001600260008773ffffffffffffffffffffffffffffffffffffffff1673ffffffffffffffffffffffffffffffffffffffff168152602001908152602001600020600501548152602001600260008773ffffffffffffffffffffffffffffffffffffffff1673ffffffffffffffffffffffffffffffffffffffff168152602001908152602001600020600601548152602001600260008773ffffffffffffffffffffffffffffffffffffffff1673ffffffffffffffffffffffffffffffffffffffff16815260200190815260200160002060070154815250600260008773ffffffffffffffffffffffffffffffffffffffff1673ffffffffffffffffffffffffffffffffffffffff1681526020019081526020016000206000820151816000015560208201518160010160006101000a81548173ffffffffffffffffffffffffffffffffffffffff021916908373ffffffffffffffffffffffffffffffffffffffff1602179055506040820151816002019080519060200190610790929190610ddd565b5060608201518160030190805190602001906107ad929190610ddd565b506080820151816004015560a0820151816005015560c0820151816006015560e08201518160070155905050600260008573ffffffffffffffffffffffffffffffffffffffff1673ffffffffffffffffffffffffffffffffffffffff1681526020019081526020016000206000808201600090556001820160006101000a81549073ffffffffffffffffffffffffffffffffffffffff02191690556002820160006108589190610e63565b6003820160006108689190610e63565b600482016000905560058201600090556006820160009055600782016000905550508473ffffffffffffffffffffffffffffffffffffffff168473ffffffffffffffffffffffffffffffffffffffff167fddf252ad1be2c89b69c2b068fc378daa952ba7f163c4a11628f55a4df523b3ef856040516108e791906111d7565b60405180910390a360019050949350505050565b6000600154905090565b60008054906101000a900473ffffffffffffffffffffffffffffffffffffffff1673ffffffffffffffffffffffffffffffffffffffff163373ffffffffffffffffffffffffffffffffffffffff161461095d57600080fd5b60008054906101000a900473ffffffffffffffffffffffffffffffffffffffff1673ffffffffffffffffffffffffffffffffffffffff163373ffffffffffffffffffffffffffffffffffffffff16146109b557600080fd5b600180546109c3919061136d565b60018190555060006109d58383610d49565b905060405180610100016040528060015481526020018873ffffffffffffffffffffffffffffffffffffffff16815260200187815260200186815260200185815260200182815260200184815260200183815250600260008973ffffffffffffffffffffffffffffffffffffffff1673ffffffffffffffffffffffffffffffffffffffff1681526020019081526020016000206000820151816000015560208201518160010160006101000a81548173ffffffffffffffffffffffffffffffffffffffff021916908373ffffffffffffffffffffffffffffffffffffffff1602179055506040820151816002019080519060200190610ad5929190610ddd565b506060820151816003019080519060200190610af2929190610ddd565b506080820151816004015560a0820151816005015560c0820151816006015560e082015181600701559050507e7dc6ab80cc84c043b7b8d4fcafc802187470087f7ea7fccd2e17aecd0256a187600154604051610b50929190611173565b60405180910390a150505050505050565b60008054906101000a900473ffffffffffffffffffffffffffffffffffffffff1681565b6000600260008373ffffffffffffffffffffffffffffffffffffffff1673ffffffffffffffffffffffffffffffffffffffff168152602001908152602001600020600001549050919050565b60026020528060005260406000206000915090508060000154908060010160009054906101000a900473ffffffffffffffffffffffffffffffffffffffff1690806002018054610c20906114d8565b80601f0160208091040260200160405190810160405280929190818152602001828054610c4c906114d8565b8015610c995780601f10610c6e57610100808354040283529160200191610c99565b820191906000526020600020905b815481529060010190602001808311610c7c57829003601f168201915b505050505090806003018054610cae906114d8565b80601f0160208091040260200160405190810160405280929190818152602001828054610cda906114d8565b8015610d275780601f10610cfc57610100808354040283529160200191610d27565b820191906000526020600020905b815481529060010190602001808311610d0a57829003601f168201915b5050505050908060040154908060050154908060060154908060070154905088565b600080610d568484610d62565b90508091505092915050565b600080831415610d755760009050610dd7565b60008284610d8391906113f4565b9050828482610d9291906113c3565b14610dd2576040517f08c379a0000000000000000000000000000000000000000000000000000000008152600401610dc9906111b7565b60405180910390fd5b809150505b92915050565b828054610de9906114d8565b90600052602060002090601f016020900481019282610e0b5760008555610e52565b82601f10610e2457805160ff1916838001178555610e52565b82800160010185558215610e52579182015b82811115610e51578251825591602001919060010190610e36565b5b509050610e5f9190610ea3565b5090565b508054610e6f906114d8565b6000825580601f10610e815750610ea0565b601f016020900490600052602060002090810190610e9f9190610ea3565b5b50565b5b80821115610ebc576000816000905550600101610ea4565b5090565b6000610ed3610ece84611320565b6112fb565b905082815260208101848484011115610eef57610eee6115fc565b5b610efa848285611496565b509392505050565b600081359050610f118161166b565b92915050565b600082601f830112610f2c57610f2b6115f7565b5b8135610f3c848260208601610ec0565b91505092915050565b600081359050610f5481611682565b92915050565b600060208284031215610f7057610f6f611606565b5b6000610f7e84828501610f02565b91505092915050565b60008060008060808587031215610fa157610fa0611606565b5b6000610faf87828801610f02565b9450506020610fc087828801610f02565b9350506040610fd187828801610f45565b925050606085013567ffffffffffffffff811115610ff257610ff1611601565b5b610ffe87828801610f17565b91505092959194509250565b60008060008060008060c0878903121561102757611026611606565b5b600061103589828a01610f02565b965050602087013567ffffffffffffffff81111561105657611055611601565b5b61106289828a01610f17565b955050604087013567ffffffffffffffff81111561108357611082611601565b5b61108f89828a01610f17565b94505060606110a089828a01610f45565b93505060806110b189828a01610f45565b92505060a06110c289828a01610f45565b9150509295509295509295565b6110d88161144e565b82525050565b6110e781611460565b82525050565b60006110f882611351565b611102818561135c565b93506111128185602086016114a5565b61111b8161160b565b840191505092915050565b600061113360218361135c565b915061113e8261161c565b604082019050919050565b6111528161148c565b82525050565b600060208201905061116d60008301846110cf565b92915050565b600060408201905061118860008301856110cf565b6111956020830184611149565b9392505050565b60006020820190506111b160008301846110de565b92915050565b600060208201905081810360008301526111d081611126565b9050919050565b60006020820190506111ec6000830184611149565b92915050565b600061010082019050611208600083018b611149565b611215602083018a6110cf565b818103604083015261122781896110ed565b9050818103606083015261123b81886110ed565b905061124a6080830187611149565b61125760a0830186611149565b61126460c0830185611149565b61127160e0830184611149565b9998505050505050505050565b600060e082019050611293600083018a611149565b81810360208301526112a581896110ed565b905081810360408301526112b981886110ed565b90506112c86060830187611149565b6112d56080830186611149565b6112e260a0830185611149565b6112ef60c0830184611149565b98975050505050505050565b6000611305611316565b9050611311828261150a565b919050565b6000604051905090565b600067ffffffffffffffff82111561133b5761133a6115c8565b5b6113448261160b565b9050602081019050919050565b600081519050919050565b600082825260208201905092915050565b60006113788261148c565b91506113838361148c565b9250827fffffffffffffffffffffffffffffffffffffffffffffffffffffffffffffffff038211156113b8576113b761153b565b5b828201905092915050565b60006113ce8261148c565b91506113d98361148c565b9250826113e9576113e861156a565b5b828204905092915050565b60006113ff8261148c565b915061140a8361148c565b9250817fffffffffffffffffffffffffffffffffffffffffffffffffffffffffffffffff04831182151516156114435761144261153b565b5b828202905092915050565b60006114598261146c565b9050919050565b60008115159050919050565b600073ffffffffffffffffffffffffffffffffffffffff82169050919050565b6000819050919050565b82818337600083830152505050565b60005b838110156114c35780820151818401526020810190506114a8565b838111156114d2576000848401525b50505050565b600060028204905060018216806114f057607f821691505b6020821081141561150457611503611599565b5b50919050565b6115138261160b565b810181811067ffffffffffffffff82111715611532576115316115c8565b5b80604052505050565b7f4e487b7100000000000000000000000000000000000000000000000000000000600052601160045260246000fd5b7f4e487b7100000000000000000000000000000000000000000000000000000000600052601260045260246000fd5b7f4e487b7100000000000000000000000000000000000000000000000000000000600052602260045260246000fd5b7f4e487b7100000000000000000000000000000000000000000000000000000000600052604160045260246000fd5b600080fd5b600080fd5b600080fd5b600080fd5b6000601f19601f8301169050919050565b7f536166654d6174683a206d756c7469706c69636174696f6e206f766572666c6f60008201527f7700000000000000000000000000000000000000000000000000000000000000602082015250565b6116748161144e565b811461167f57600080fd5b50565b61168b8161148c565b811461169657600080fd5b5056fea2646970667358221220be16996b8a26425c612db880bd92028e42a3e651aa53fdb203c58f4783ac8c8d64736f6c63430008070033",
  "immutableReferences": {},
  "source": "// SPDX-License-Identifier: MIT\npragma solidity >=0.5.16 <0.9.0;\n///@title for saving of properties of the land of a country\n///@notice you can use this contract for registraton of lands and selling them\n///@dev all function calls in this contract are currently implemented without side effects.\nimport \"./SafeMath.sol\";\n\n\ncontract RealEstateContract{\n //Declare the struct\n// Estate struct keeps the information of the land\n\n    struct Estate {\n     uint id;\n     address ownerAddress;\n     string landOwnerName;\n     string location;\n     uint cost;\n     uint area;\n     uint lengthLand;\n     uint widthLand;\n    }\n\n    //set the owner of the contract to whoever deployed it, in this contract it is the government\n       address public owner;\n       uint public totalEstateCounter;\n\n       constructor()\n    {\n      owner = msg.sender;\n      totalEstateCounter = 0;\n    }\n     //Modifier\n    //for functions to be available only to the government ,create a modifier called isOwner\n     modifier isOwner\n    {\n        require(msg.sender == owner);\n        _;\n    }\n    event Register(address  _owner, uint _id);\n    event Transfer(address indexed _from, address indexed _to, uint _id);\n\n    ///@notice SafeMath is a library for mathematical operations\n using SafeMath for uint;\n  //Mapping\n//link addresses their esate structs through this mapping\nmapping (address => Estate) public estates;\n\n\n///@notice getArea uses SafeMath's function to return area of the land\nfunction getArea(uint _lengthLand , uint _widthLand) internal pure returns(uint){\n\n    uint area = SafeMath.mul(_lengthLand, _widthLand);\n    return area;\n    }\n///@notice registerEstate function uses details of struct to register the land\n//push the estate to the governments estates mapping and emit the register event.\nfunction registerEstate(address _landOwner , string memory _landOwerName,string memory _location, uint _cost ,uint _lengthLand , uint _widthLand)  public isOwner\n   isOwner {\n        totalEstateCounter = totalEstateCounter + 1;\n        uint Area = getArea(_lengthLand, _widthLand);\n       estates[_landOwner] = Estate(\n            {\n                id: totalEstateCounter,\n                ownerAddress: _landOwner,\n                landOwnerName: _landOwerName,\n                location: _location,\n                cost: _cost,\n                lengthLand : _lengthLand,\n                widthLand: _widthLand,\n                area : Area\n            });\n        emit Register(_landOwner, totalEstateCounter);\n}\n\n///@notice transferEstate function is used for transfering the estate\nfunction transferEstate(address _buyer, address _seller, uint _ID , string memory sellerName ) public isOwner returns (bool){\n            require(estates[_seller].id == _ID);\n              estates[_buyer] = Estate (\n                  {\n                    ownerAddress:_buyer,\n                    landOwnerName:sellerName,\n                    location: estates[_seller].location,\n                    cost: estates[_seller].cost,\n                    lengthLand:estates[_seller].lengthLand,\n                    widthLand: estates[_seller].widthLand,\n                    area: estates[_seller].area,\n                    id: _ID\n                  });\n                delete estates[_seller];\n\n                emit Transfer(_seller, _buyer, _ID);\n                return true;\n}\n    ///@notice getEstate function is used to view the estate details of someones account\nfunction getEstate(address _estateOwner) public view returns (uint ,string memory, string memory, uint, uint ,uint, uint)\n    {\n        Estate memory e = estates [_estateOwner];\n        return(e.id , e.landOwnerName, e.location, e.cost, e.lengthLand, e.widthLand, e.area);\n}\n///@notice getNumberOfEstates function is used to retern the number of estates the account has\nfunction getNumberOfEstates() public  view returns (uint)\n    {\n        return totalEstateCounter;\n}\n///@notice findEstateId function is used to retern the id of the estate by using its address\nfunction findEstateId(address _landOwner) public view returns(uint){\n      return (estates [_landOwner].id);\n}\n}",
  "sourcePath": "/home/alina_zain/blockchain-developer-bootcamp-final-project/contracts/RealEstateContract.sol",
  "compiler": {
    "name": "solc",
    "version": "0.8.7+commit.e28d00a7.Emscripten.clang"
  },
  "schemaVersion": "3.4.3",
  "updatedAt": "2022-01-13T08:30:42.430Z",
  "networkType": "ethereum",
  "devdoc": {
    "kind": "dev",
    "methods": {},
    "version": 1
  },
  "userdoc": {
    "kind": "user",
    "methods": {
      "findEstateId(address)": {
        "notice": "findEstateId function is used to retern the id of the estate by using its address"
      },
      "getEstate(address)": {
        "notice": "getEstate function is used to view the estate details of someones account"
      },
      "getNumberOfEstates()": {
        "notice": "getNumberOfEstates function is used to retern the number of estates the account has"
      },
      "registerEstate(address,string,string,uint256,uint256,uint256)": {
        "notice": "registerEstate function uses details of struct to register the land"
      },
      "transferEstate(address,address,uint256,string)": {
        "notice": "transferEstate function is used for transfering the estate"
      }
    },
    "version": 1
  }
}